:100000000C94AB010C94DC010C94DC010C94DC012D
:100010000C94DC010C94DC010C94DC010C94DC01EC
:100020000C94DC010C94DC010C94DC010C94DC01DC
:100030000C94DC010C94DC010C94DC010C94DC01CC
:100040000C94DC010C94DC010C94DC010C94DC01BC
:100050000C94DC010C94DC010C94DC010C94D90DA3
:100060000C94DC010C9460110C9496110C94DC013E
:100070000C94DC010C94DC010C94DC010C94DC018C
:100080000C94DC010C94DC010C94DC010C94DC017C
:100090000C94DC010C94DC010C94DC010C94DC016C
:1000A0000C94DC010C94DC010C94DC010C94DC015C
:1000B0000C94DC010C94DC010C94DC010C94DC014C
:1000C0000C94DC010C94DC010C94DC010C94DC013C
:1000D0000C94DC010C94DC010C94DC010C94DC012C
:1000E0000C94DC01BA06C706ED0606070F071807D1
:1000F00021076C078707A407AB07B207B907C0073A
:10010000D707C707D707CE0747084B084F0853083C
:1001100057085B085F08190F1C0F0B0F0F0F150F07
:10012000530F200F240F2A0F2E0F320F380F3C0FC2
:10013000400F530F460F4A0F4E0F0C942E0F0C9486
:10014000CE070C94C7060C946C070C944B080C94C7
:100150003C0F0C94B2070C9496070C94190F0C9456
:10016000CA110C9465080C94200F0C9488090C9407
:1001700018070C9453080C945F080C94ED060C942B
:100180004F080C94240F0C9487070C9457080C9478
:100190006F090C94530F0C94460F0C94BA060C94F0
:1001A00047080C94C0110C940F070C9499100C94F0
:1001B000DA070C941D120C94A9080C9477100C9477
:1001C000B9070C94C0070C9430080C9406070C94E3
:1001D000F70F0C9421070C94EC0F0C94F9080C9475
:1001E0001C0F0C94AB070C94A4070C945B080C94A4
:1001F0004A0F0C9405100C9419100C94C7070C941A
:10020000150F0C941A090C94400F0C94380F0C9491
:100210000B0F0C94320F0C940F0F0C944E0F0C9488
:1002200036060C942A0F0C944E090C94D7070C94A4
:10023000E30800000A0B02090C0D0E080703040175
:1002400000000000000000000000000000000000AE
:10025000000000000000000000000000000012117B
:10026000100000000000000000000000000000007E
:10027000000000000000000001021020200808100B
:100280002040102040800201020108040201010206
:1002900004081020408080402010080402018004DF
:1002A000020180402010080402010804020101023A
:1002B0000408102040800102040810204080050539
:1002C0000505070508080808020202020A0A0808CC
:1002D00004040404010101010101010103030303FA
:1002E00003030303040707070C0C0C0C0C0C0C0C89
:1002F0000202020206060606060606060B0B0B0B9A
:100300000B0B0B0B000020002300260029002C0003
:100310002F00320000010000030106010901000066
:100320002200250028002B002E003100340002019D
:100330000000050108010B01000021002400270036
:100340002A002D00300033000101000004010701E4
:100350000A013606CA1111241FBECFEFD1E2DEBF5B
:10036000CDBF00E00CBF13E0A0E0B2E0E8E3FCE2A8
:1003700000E00BBF02C007900D92AE33B107D9F772
:1003800024E0AEE3B3E001C01D92AE3DB207E1F759
:1003900013E0C6E5D3E000E006C022970109FE01A4
:1003A0000BBF0E940716C235D10780E00807A9F7E6
:1003B0000E940E120C941A160C940000CF93DF9337
:1003C00026E040E855E260E070E081E494E00E94BD
:1003D000FE10CEE0D2E061E088810E94540F60E020
:1003E00088E20E94540F61E088810E948D0F40E0F6
:1003F00050E86BEB75E48AE993E00E94BC0C40E0A6
:1004000050E06AE774E48AE993E00E94210D40E03D
:1004100050E86BEB75E486E593E00E94BC0C40E08D
:1004200050E06AE774E486E593E00E94210D40E025
:1004300050E86BEB75E48EED93E00E94BC0C40E05D
:1004400050E06AE774E48EED93E0DF91CF910C9475
:10045000210D0F931F93CF93DF938C01CEE0D2E059
:1004600060E088810E948D0FA801662757FD609586
:10047000762F8AE993E00E94CF0D61E08881DF91B9
:10048000CF911F910F910C948D0FCF93DF93C4E602
:10049000D0E080910C020E94DB0EAA2797FDA09568
:1004A000BA2F8093300490933104A0933204B09318
:1004B000330480910A020E94DB0EAA2797FDA095C3
:1004C000BA2F80932C0490932D04A0932E04B09304
:1004D0002F04809108020E94DB0EAA2797FDA095A9
:1004E000BA2F8093280490932904A0932A04B093F0
:1004F0002B0440913004509131046091320470918A
:1005000033042AE030E081E494E00E94351361E195
:1005100072E081E494E00E945B1240912C045091BF
:100520002D0460912E0470912F042AE030E081E4C4
:1005300094E00E94351361E172E081E494E00E944E
:100540005B12409128045091290460912A04709113
:100550002B042AE030E081E494E00E9435136EE23F
:1005600073E081E494E00E945B1264E670E080E056
:1005700090E00E94460E219709F08BCFDF91CF913A
:1005800008959C01235E31402B33310508F457C098
:10059000811522E0920714F52FEF2093510362EEAC
:1005A00071E0681B790B882777FD8095982F0E9452
:1005B000471420E030E040E05BE30E94FB1423E3BB
:1005C0003FE74BEB55E40E94FB149B01AC016DEC43
:1005D0007CEC8CEC9DE30E9443131EC021E0209331
:1005E0005103BC01625E7140882777FD8095982F8A
:1005F0000E94471420E030E040E05BE30E94FB14DF
:1006000023E33FE74BEB55E40E94FB142DEC3CEC5D
:100610004CEC5DE30E9444130E941914609328047B
:100620007093290480932A0490932B0460912804EA
:100630007091290480912A0490912B04089560E020
:1006400070E0CB010895CF93DF9360E080910E02BC
:100650000E948D0FC8E8D3E18091060290910702B5
:100660001816190634F40197909307028093060236
:1006700030C0D0930702C093060288E20E94C30FE5
:10068000892B69F065E172E081E494E00E946812D0
:1006900061E080910E02DF91CF910C948D0F86E581
:1006A00093E00E94BB09809108020E94DB0E0E9429
:1006B000C1020E944714AB01BC0140935203509306
:1006C0005303609354037093550386E593E00E94AF
:1006D000450D86E593E00E94BB09BECF9C01235ED9
:1006E00031402B33310508F457C0811522E09207C1
:1006F00014F52FEF20934C0362EE71E0681B790B29
:10070000882777FD8095982F0E94471420E030E0DD
:1007100040E05BE30E94FB1423E33FE74BEB55E42F
:100720000E94FB149B01AC016DEC7CEC8CEC9DE316
:100730000E9443131EC021E020934C03BC01625E63
:100740007140882777FD8095982F0E94471420E0FC
:1007500030E040E05BE30E94FB1423E33FE74BEB18
:1007600055E40E94FB142DEC3CEC4CEC5DE30E9444
:1007700044130E94191460932C0470932D048093E9
:100780002E0490932F0460912C0470912D0480917D
:100790002E0490912F04089560E070E0CB0108953D
:1007A000CF93DF9360E080910E020E948D0FC8E826
:1007B000D3E180910402909105021816190634F4D1
:1007C0000197909305028093040230C0D0930502F4
:1007D000C093040288E20E94C30F892B69F065E18F
:1007E00072E081E494E00E94681261E080910E0260
:1007F000DF91CF910C948D0F8AE993E00E94BB09A1
:1008000080910A020E94DB0E0E946E030E94471430
:10081000AB01BC0140934D0350934E0360934F03D3
:10082000709350038AE993E00E94450D8AE993E0B2
:100830000E94BB09BECF9C01235E31402B333105A2
:1008400008F457C0811522E0920714F52FEF20938A
:100850004B0362EE71E0681B790B882777FD80956A
:10086000982F0E94471420E030E040E05BE30E94B4
:10087000FB1423E33FE74BEB55E40E94FB149B0181
:10088000AC016DEC7CEC8CEC9DE30E9443131EC02C
:1008900021E020934B03BC01625E7140882777FD05
:1008A0008095982F0E94471420E030E040E05BE301
:1008B0000E94FB1423E33FE74BEB55E40E94FB143B
:1008C0002DEC3CEC4CEC5DE30E9444130E941914A7
:1008D0006093300470933104809332049093330416
:1008E000609130047091310480913204909133040E
:1008F000089560E070E0CB010895CF93DF9360E04E
:1009000080910E020E948D0FC0EDD7E0809102020F
:10091000909103021816190634F40197909303027C
:100920008093020276C0D0930302C093020288E251
:100930000E94C30F892B69F065E172E081E494E0C5
:100940000E94681261E080910E02DF91CF910C94B9
:100950008D0F8AE993E00E94BB0986E593E00E942F
:10096000BB098EED93E00E94BB0980910A020E94B0
:10097000DB0E0E946E030E9447146093470370933E
:1009800048038093490390934A03809108020E9490
:10099000DB0E0E94C1020E944714609343037093D0
:1009A0004403809345039093460380910C020E9478
:1009B000DB0E0E941B040E94471460933F03709358
:1009C0004003809341039093420340914703509129
:1009D00048036091490370914A038AE993E00E94B9
:1009E000450D40914303509144036091450370913C
:1009F000460386E593E00E94450D40913F035091E8
:100A0000400360914103709142038EED93E00E9498
:100A1000450D8AE993E00E94BB0986E593E00E94B8
:100A2000BB098EED93E00E94BB0970CF0E94DB0EE4
:100A30009C01235E31402B33310508F447C08115FA
:100A400022E0920714F52FEF20933E0362EE71E04F
:100A5000681B790B882777FD8095982F0E94471493
:100A600020E030E040E05BE30E94FB1423E33FE73B
:100A70004BEB55E40E94FB149B01AC016DEC7CEC4C
:100A80008CEC9DE30E9443131EC021E020933E03A3
:100A9000BC01625E7140882777FD8095982F0E9487
:100AA000471420E030E040E05BE30E94FB1423E3C6
:100AB0003FE74BEB55E40E94FB142DEC3CEC4CEC77
:100AC0005DE30E9444130E941414089560E070E0F6
:100AD000CB010895CF92DF92EF92FF921F93CF93B5
:100AE000DF9300D01F92CDB7DEB7182F883759F4A7
:100AF0006EE172E081E494E00E946812C0900C0202
:100B0000D0900D0220C0893759F468E272E081E488
:100B100094E00E946812C0900A02D0900B0213C0A9
:100B20008A3759F462E372E081E494E00E9468122B
:100B3000C0900802D090090206C06CE372E081E424
:100B400094E00E94681260E080910E020E948D0F76
:100B500080EDE82E87E0F82E20910002309101020E
:100B60001216130654F421503109309301022093D8
:100B70000002183709F055C06EC0F0920102E092F1
:100B80000002C6010E9416050E944714AB01BC0179
:100B900088E249835A836B837C830E94C30F498117
:100BA0005A816B817C81892B19F065E172E03FC02D
:100BB000183789F48EED93E049835A836B837C83E5
:100BC0000E94BB0949815A816B817C818EED93E043
:100BD0000E94450D40C0193789F48AE993E04983A2
:100BE0005A836B837C830E94BB0949815A816B8144
:100BF0007C818AE993E00E94450D30C01A37A9F440
:100C000086E593E049835A836B837C830E94BB090A
:100C100049815A816B817C8186E593E00E94450D74
:100C200020C01937D9F01A37E1F06CE372E081E4A3
:100C300094E00E94681261E080910E020F900F9084
:100C40000F900F90DF91CF911F91FF90EF90DF9069
:100C5000CF900C948D0F8EED93E005C08AE993E060
:100C600002C086E593E00E94BB0976CFCF92EF9257
:100C70000F93CC24C39495E0E92E04E027E044E0F0
:100C800061E08EED93E00E94500C25E042E061E0CF
:100C90008AE993E00E94500C26E043E061E086E59B
:100CA00093E00E94500C0F91EF90CF9008950F9316
:100CB0001F9310923404109235041092360410924F
:100CC000370480912604909127048F9781F181E465
:100CD00094E00E9405108C019093270480932604D1
:100CE0001816190674F78F32910559F320913404C0
:100CF000309135044091360450913704AAE0B0E0B9
:100D00000E94FC156053710981099109222717FD82
:100D10002095322F600F711F821F931F6093340440
:100D2000709335048093360490933704CACF1092A1
:100D30002704109226046091340470913504809148
:100D40003604909137041F910F9108950E94570621
:100D50008091340490913504A0913604B091370409
:100D6000FC013197E930F10508F0DFC0EE58FF4F84
:100D70000C94F61569E472E081E494E00E94681234
:100D80000E94570660913404709135040FC063E6E9
:100D900072E081E494E00E9468120E94570660911C
:100DA000340470913504719561957109709325042F
:100DB000609324044AE050E081E494E00E941D1313
:100DC00080912404909125040E9429021092250408
:100DD000109224046AE572E0A4C064E772E081E442
:100DE00094E00E94681260E080910E020E948D0FD4
:100DF00060E47FE180E090E00E94460E61E0809137
:100E00000E020E948D0F6CE772E08BC065E872E005
:100E100081E494E00E9468120E94450280C062E969
:100E200072E081E494E00E9468120E94230377C07C
:100E300061EA72E081E494E00E9468120E94D003AB
:100E40006EC060EB72E081E494E00E9468126DEB8A
:100E500072E081E494E00E94681262EC72E081E446
:100E600094E00E94681267EC72E081E494E00E94D2
:100E700068120E9457068091340490913504A09125
:100E80003604B091370482309105A105B10591F087
:100E900083309105A105B105A9F00197A105B10520
:100EA00009F043C06CEC72E081E494E00E946812A7
:100EB00088E70FC065ED72E081E494E00E9468125B
:100EC00089E707C06EED72E081E494E00E94681249
:100ED0008AE70E946A0523C067EE72E081E494E02D
:100EE0000E94681288E20E94C30F909323048093AB
:100EF00022044AE050E0BC0181E494E00E941D130A
:100F00006AEF70E080E090E00E94460EEBCF66EF63
:100F100072E081E494E00E9468120E947D046DE812
:100F200072E081E494E00C94681208950F931F938B
:100F3000DC0112960C9110E009301105C0F5F801A2
:100F4000E558FF4F0C94F615DC01ED91FC910084FF
:100F5000F185E02D29C0DC01ED91FC910284F3853F
:100F6000E02D22C0DC01ED91FC910484F585E02D9B
:100F70001BC0DC01ED91FC910684F785E02D14C0C7
:100F8000DC01ED91FC910088F189E02D0DC0DC01C0
:100F9000ED91FC910288F389E02D06C0DC01ED9112
:100FA000FC910488F589E02D1F910F9119941F91F0
:100FB0000F910895CF93DF93EC01CB01BA0126E0A6
:100FC00030E040E050E00E94D715623071058105A5
:100FD000910559F18CF46115710581059105F1F0C8
:100FE0006130710581059105C1F5E881F9810480C1
:100FF000F581E02D65E02DC0643071058105910516
:1010000011F1D4F0653071058105910531F5E88164
:10101000F9810480F581E02D66E01BC0E881F9814B
:101020000480F581E02D64E014C0E881F98104803A
:10103000F581E02D61E00DC0E881F9810480F58142
:10104000E02D63E006C0E881F9810480F581E02DA0
:1010500062E0CE01DF91CF911994DF91CF91089595
:10106000CF93DF9347705527662777274150510963
:10107000DC01CD91DC914730510528F44C575F4F8E
:10108000FA010C94F615EC81FD8161E01BC0EC8146
:10109000FD8165E017C0EC81FD8164E013C0EC8147
:1010A000FD8166E00FC0EC81FD8162E00BC0EC8148
:1010B000FD816AE007C0EC81FD8168E003C0EC813E
:1010C000FD8169E0DF91CF911994AF92BF92DF92D9
:1010D000EF92FF920F931F93CF93DF931F92CDB7A1
:1010E000DEB78C01FC018281843041F0883031F020
:1010F000833031F0863021F022E003C024E001C0CB
:1011000023E0A12CB12CE62EF12CDD24D394F801A0
:10111000EA0DFB1DC7010A2C02C0959587950A941C
:10112000E2F7678180FD6D25838129830E948D0F01
:10113000FFEFAF1ABF0A2981A21648F30F90DF9183
:10114000CF911F910F91FF90EF90DF90BF90AF90E4
:1011500008950F931F93CF93DF93EC01E881F981FA
:101160000480F581E02D8C010D5B1F4FD8018C911F
:10117000882311F062E001C060E0CE011995E8819A
:10118000F9810480F581E02DD8018C91882311F03C
:1011900063E001C061E0CE0119958BA59CA50E947A
:1011A0006E0EE881F9810480F581E02DD8018C91E3
:1011B000882311F062E001C060E0CE01DF91CF91A1
:1011C0001F910F911994CF93DF93EC0120E030E051
:1011D000A9016B897C898D899E890E94F714181654
:1011E0001CF4EFA5F8A902C0E9A9FAA9DF91CF91F3
:1011F00019944370552766277727DC01ED91FC9100
:101200000480F581E02D423051056105710571F0D2
:10121000433051056105710559F0413051056105B3
:10122000710511F062E005C063E003C061E001C038
:1012300060E01994CF93DF93EC01CB01BA0123E076
:1012400030E040E050E00E94D71561307105810523
:10125000910581F0623071058105910591F0672B50
:10126000682B692BC1F4E881F9810480F581E02DB8
:1012700064E00DC0E881F9810480F581E02D61E032
:1012800006C0E881F9810480F581E02D62E0CE019D
:10129000DF91CF911994DF91CF9108954370552735
:1012A00066277727DC01ED91FC910480F581E02D24
:1012B000423051056105710571F0433051056105FA
:1012C000710559F0413051056105710511F065E076
:1012D00005C066E003C06AE001C069E01994CF93DD
:1012E000DF93EC018A81882381F0E881F981048011
:1012F000F581E02D60E0CE0119958EA58F3F29F094
:101300006DA5DF91CF910C948D0FDF91CF91089552
:10131000CF93DF93EC018A81882351F161E08B81C7
:101320000E94540F61E08C810E94540F8A818430A6
:1013300011F0883039F461E08D810E94540F61E032
:101340008E8106C0833011F0863021F461E08D81FA
:101350000E94540F8EA58F3F59F061E00E94540FF8
:101360006DA581E068278EA5DF91CF910C948D0F3C
:10137000DF91CF910895CF92DF92EF92FF920F937A
:101380001F93CF93DF93EC014BA15CA16DA17EA1D4
:10139000452B462B472B09F44DC00E94230E6B01B1
:1013A0007C010FA118A529A53AA54BA15CA16DA1AF
:1013B0007EA1400F511F621F731F40175107620724
:1013C000730730F0C416D506E606F70658F405C0D4
:1013D000C416D506E606F70668F1C016D106E20681
:1013E000F30640F5FE01ED5BFF4F80814B855C8588
:1013F0006D857E85882329F04F5F5F4F6F4F7F4F4C
:1014000004C041505109610971094B875C876D87A0
:101410007E87E881F9814B855C856D857E850680B8
:10142000F781E02DCE011995CFA2D8A6E9A6FAA69C
:1014300081E001C080E0DF91CF911F910F91FF907B
:10144000EF90DF90CF9008952F923F924F925F924E
:101450006F927F928F929F92AF92BF92CF92DF92C4
:10146000EF92FF920F931F93CF93DF9300D01F92C1
:10147000CDB7DEB71C01FC0187849088A188B288B3
:1014800083859485A585B685881A990AAA0ABB0A18
:1014900063897489858996899B01AC010E94FB143C
:1014A0006B017C01F101638D748D858D968D9B019F
:1014B000AC010E9444139B01AC01C701B6010E941C
:1014C000AC130E94141481149104A104B104A1F47A
:1014D00062307105810591050CF07CC0F10113A209
:1014E00014A215A216A2138A148A158A168A13AAA0
:1014F00014AA15AA16AA03C1F10103A914A925A9C2
:1015000036A9ED5BFF4F181419041A041B04FCF4F0
:1015100010161106120613064CF4681579058A0593
:101520009B054CF52081211155C025C001151105E1
:101530002105310509F44EC0681579058A059B051A
:101540000CF048C08081882309F444C037C01016CD
:10155000110612061306F4F4002711279801081942
:1015600019092A093B0960177107820793071CF4C0
:101570002081222379F19B01AC0188279927DC0186
:10158000821B930BA40BB50BF10183AB94ABA5AB02
:10159000B6AB20C00115110521053105D9F0CC24C9
:1015A000DD247601C818D908EA08FB086C157D050A
:1015B0008E059F057CF4808181110CC030952095AB
:1015C000109501951F4F2F4F3F4FF10103AB14AB07
:1015D00025AB36ABF101C3A8D4A8E5A8F6A88101D4
:1015E0000D5B1F4FC114D104E104F10491F487A9EC
:1015F00090ADA1ADB2AD83AF94AFA5AFB6AF81E072
:10160000181419041A041B040CF080E0F8018083FC
:1016100040C0F10183AC94ACA5ACB6ACA50194017B
:10162000C501B4010E9444132B013C01C701B6015E
:101630000E94471420E030E040E850E40E94FB1490
:1016400020E030E040E85FE30E9444139B01AC01DE
:10165000C301B2010E94AC139B01AC01C501B401EE
:101660000E9443132B013C01F101FF968080918081
:10167000A280B3809401A5010E94F714181614F4F7
:1016800042015301C401D501F10183AF94AFA5AF6D
:10169000B6AFFFEFCF1ADF0AEF0AFF0AF101C3AAC4
:1016A000D4AAE5AAF6AA23AD34AD45AD56ADCA011C
:1016B000B90129833A834B835C830E941914F10199
:1016C00063A374A385A396A329813A814B815C818E
:1016D00060E074E284E799E40E94AC13F101638B4B
:1016E000748B858B968BF8012081211108C0DC0159
:1016F000CB01B058F101838B948BA58BB68B0F90E7
:101700000F900F900F90DF91CF911F910F91FF904D
:10171000EF90DF90CF90BF90AF909F908F907F9091
:101720006F905F904F903F902F9008950F931F936D
:10173000FC010785108921893289041715072607BE
:10174000370741F04787508B618B728B1F910F9148
:101750000C94240A1F910F9108954F925F926F92FB
:101760007F928F929F92AF92BF92CF92DF92EF9231
:10177000FF92CF93DF93EC016A017B018B8C9C8CF1
:10178000AD8CBE8C9A01AB01C501B4010E94A813B7
:10179000882309F449C06BA97CA98DA99EA90E9440
:1017A00047142B013C01A7019601C501B4010E9419
:1017B000AC139B01AC01C301B2010E94FB140E9457
:1017C00014146BAB7CAB8DAB9EABA701960160E0B4
:1017D00070E080E090E40E94AC130E94621526E560
:1017E0003EE04DE25FE30E94FB1420E034E244E778
:1017F00059E40E94FB146FAB78AF89AF9AAFCB8EE0
:10180000DC8EED8EFE8ECE01DF91CF91FF90EF90BA
:10181000DF90CF90BF90AF909F908F907F906F9010
:101820005F904F900C94240ADF91CF91FF90EF903E
:10183000DF90CF90BF90AF909F908F907F906F90F0
:101840005F904F9008950F931F93CF93DF93EC0118
:101850000E94BB09882319F0CE010E94240A20E0CF
:1018600030E0A9016B897C898D899E890E94A8132B
:10187000811110C081E00F85188929893A894B852B
:101880005C856D857E85041715072607370719F4D3
:1018900080E001C081E0DF91CF911F910F91089509
:1018A0008F929F92AF92BF92CF92EF920F93CF936E
:1018B000DF93EC0187E093E0998388836A831B863A
:1018C0001C861D861E861F86188A198A1A8A1B8AFC
:1018D0001C8A1D8A1E8A812C912C80E8A82E8FE3F9
:1018E000B82E8F8A988EA98EBA8E1B8E1C8E1D8E56
:1018F0001E8E8F8E98A2A9A2BAA21BA21CA21DA204
:101900001EA281E090E09CA78BA78FEF8EA71FA25D
:1019100018A619A61AA64B832C830D83EE821BAA48
:101920001CAA1DAA1EAA1FAA18AE19AE1AAE1BAE7B
:101930001CAE1DAE1EAEFE01FF9680829182A28279
:10194000B382349610821F82188619861A86CC209C
:1019500019F0CE010E94880940E050E060E87FE382
:10196000CE01DF91CF910F91EF90CF90BF90AF90CC
:101970009F908F900C94AD0BCF92DF92EF92FF92DD
:101980000F931F93CF93DF93EC016A017B019A01C0
:10199000AB016F89788D898D9A8D0E94A813882359
:1019A00009F446C0CF8AD88EE98EFA8E8E01015C8A
:1019B0001F4FA701960160E074E284E799E40E945A
:1019C000AC13F80160837183828393838BA99CA9F4
:1019D000ADA9BEA9181619061A061B064CF56B8987
:1019E0007C898D899E899B01AC010E94FB146B014F
:1019F0007C016B8D7C8D8D8D9E8D9B01AC010E9439
:101A000044139B01AC01C701B6010E94AC130E94B4
:101A100014146BAB7CAB8DAB9EABCE01DF91CF9141
:101A20001F910F91FF90EF90DF90CF900C94240ABC
:101A3000DF91CF911F910F91FF90EF90DF90CF90AA
:101A40000895CF92DF92EF92FF92CF93DF93EC0154
:101A50006A017B0120E030E0A901C701B6010E94C4
:101A6000A813882359F0B701A601CE01DF91CF91C9
:101A7000FF90EF90DF90CF900C94AD0BDF91CF9162
:101A8000FF90EF90DF90CF9008956F927F928F92AA
:101A90009F92AF92BF92CF92DF92EF92FF920F93FD
:101AA0001F93CF93DF93EC013A018B012B893C8983
:101AB0004D895E89B301C8010E94A813882309F4E7
:101AC00054C0CF88D88CE98CFA8C46015701B7FAFC
:101AD000B094B7F8B094A5019401B301C8010E9475
:101AE000A81387FD0BC0A7019601B301C8010E948E
:101AF000F71418162CF43601870102C03401850151
:101B000020E030E0A901B301C8010E94A8138111AF
:101B100005C01BA21CA21DA21EA221C09301A801E8
:101B200060E074E284E799E40E94AC139F770E941E
:101B300019146BA37CA38DA39EA37E0183E4E80EFE
:101B4000F11CDD24D39420E030E0A901B301C801E9
:101B50000E94F71418160CF0D12CF701D082C301A3
:101B6000D8018B8B9C8BAD8BBE8BDF91CF911F915E
:101B70000F91FF90EF90DF90CF90BF90AF909F902C
:101B80008F907F906F900895CF93DF93EC01CE01FB
:101B90000E94230C8111FBCFDF91CF910895CF9349
:101BA000DF93EC010E94960BCE01DF91CF910C9454
:101BB000C40D1F920F920FB60F9211242F933F93D3
:101BC0008F939F93AF93BF938091390490913A0480
:101BD000A0913B04B0913C043091380423E0230FE2
:101BE0002D3720F40196A11DB11D05C026E8230F55
:101BF0000296A11DB11D209338048093390490935F
:101C00003A04A0933B04B0933C0480913D0490912E
:101C10003E04A0913F04B09140040196A11DB11D66
:101C200080933D0490933E04A0933F04B0934004FE
:101C3000BF91AF919F918F913F912F910F900FBEC8
:101C40000F901F9018953FB7F89480913D049091A4
:101C50003E04A0913F04B091400426B5A89B05C066
:101C60002F3F19F00196A11DB11D3FBF6627782FA8
:101C7000892F9A2F620F711D811D911D42E0660F01
:101C8000771F881F991F4A95D1F70895CF92DF9249
:101C9000EF92FF92CF93DF936B017C010E94230EA2
:101CA000EB01C114D104E104F10489F00E94421354
:101CB0000E94230E6C1B7D0B683E734090F381E005
:101CC000C81AD108E108F108C851DC4FEACFDF910A
:101CD000CF91FF90EF90DF90CF90089582309105E3
:101CE00038F0880F991F880F991F05970197F1F712
:101CF0000895789484B5826084BD84B5816084BD84
:101D000085B5826085BD85B5816085BDEEE6F0E074
:101D1000808181608083E1E8F0E0108280818260D0
:101D20008083808181608083E0E8F0E08081816051
:101D30008083E1EBF0E0808184608083E0EBF0E081
:101D4000808181608083E1E9F0E08081826080832E
:101D5000808181608083E0E9F0E080818160808320
:101D6000E1EAF0E08081826080838081816080830D
:101D7000E0EAF0E0808181608083E1E2F1E080814F
:101D800082608083808181608083E0E2F1E08081F5
:101D900081608083EAE7F0E08081846080838081D5
:101DA000826080838081816080838081806880837D
:101DB0001092C1000895863308F0865320917B006D
:101DC000982F9870277F922B90937B00877020919B
:101DD000100290E4299F90011124822B80937C00B3
:101DE00080917A00806480937A0080917A0086FDE9
:101DF000FCCF809178002091790090E0922B08959B
:101E000090E0FC013197E231F10508F04CC0E55754
:101E1000FF4F0C94F615809180008F7703C080915E
:101E200080008F7D80938000089580918000877F5F
:101E3000F9CF84B58F7702C084B58F7D84BD0895B6
:101E40008091B0008F7703C08091B0008F7D809328
:101E5000B0000895809190008F7707C08091900026
:101E60008F7D03C080919000877F809390000895BC
:101E70008091A0008F7707C08091A0008F7D03C064
:101E80008091A000877F8093A00008958091200119
:101E90008F7707C0809120018F7D03C08091200142
:101EA000877F809320010895CF93DF9390E0FC011A
:101EB000E858FD4F2491FC01E254FD4F84918823A2
:101EC00049F190E0880F991FFC01E85CFC4FA59157
:101ED000B491825E9C4FFC01C591D4919FB7611172
:101EE00008C0F8948C91209582238C93888182235A
:101EF0000AC0623051F4F8948C91322F30958323CC
:101F00008C938881822B888304C0F8948C91822BD7
:101F10008C939FBFDF91CF9108950F931F93CF9321
:101F2000DF931F92CDB7DEB7282F30E0F901EE5CCA
:101F3000FD4F8491F901E858FD4F1491F901E254E5
:101F4000FD4F04910023C9F0882321F069830E948A
:101F5000000F6981E02FF0E0EE0FFF1FE25EFC4F03
:101F6000A591B4919FB7F8948C91611103C010951D
:101F7000812301C0812B8C939FBF0F90DF91CF9164
:101F80001F910F910895CF93DF93282F30E0F9012F
:101F9000EE5CFD4F8491F901E858FD4FD491F901B1
:101FA000E254FD4FC491CC2391F081110E94000FA7
:101FB000EC2FF0E0EE0FFF1FEC5FFC4FA591B4910A
:101FC0002C912D2381E090E021F480E002C080E09C
:101FD00090E0DF91CF910895FC01818D228D90E0FA
:101FE000805C9F4F821B91098F7399270895FC0194
:101FF000918D828D981731F0828DE80FF11D858DBE
:1020000090E008958FEF9FEF0895FC01918D828DF0
:10201000981761F0828DDF01A80FB11D5D968C913C
:10202000928D9F5F9F73928F90E008958FEF9FEF47
:10203000089580EC91E1892B41F080E090E0892BBC
:1020400021F00E94C011811125C080E090E0892B11
:1020500041F080E090E0892B21F00E940000811186
:102060001CC080E090E0892B41F080E090E0892B5B
:1020700021F00E940000811113C080E090E0892BC4
:10208000A1F080E090E0892B81F00E940000811196
:102090000AC008950E940000D8CF0E940000E1CF3E
:1020A0000E940000EACF0C9400000895FC01848D8A
:1020B000DF01A80FB11DA35ABF4F2C91848D90E072
:1020C00001968F739927848FA689B7892C93A0894D
:1020D000B1898C9180648C93938D848D981306C004
:1020E0000288F389E02D80818F7D80830895CF93CE
:1020F000DF93EC01888D8823C9F0EA89FB89808110
:1021000085FD05C0A889B9898C9186FD0FC00FB6E1
:1021100007FCF5CF808185FFF2CFA889B9898C9122
:1021200085FFEDCFCE010E945610E7CFDF91CF9112
:102130000895CF92DF92FF920F931F93CF93DF9377
:102140001F92CDB7DEB76C0181E0D60158968C9313
:1021500058975B969C915B975C968C915C979813D3
:1021600007C05096ED91FC915197808185FD2EC05E
:10217000F601038D10E00F5F1F4F0F731127F02E34
:10218000F601848DF81211C00FB607FCF9CFD60105
:102190005096ED91FC915197808185FFF1CFC6015A
:1021A00069830E9456106981EBCF838DE80FF11D82
:1021B000E35AFF4F6083D6015B960C935B97529670
:1021C000ED91FC915397808180620CC0D6015696A8
:1021D000ED91FC91579760835096ED91FC9151974A
:1021E00080818064808381E090E00F90DF91CF91C7
:1021F0001F910F91FF90DF90CF900895BF92CF92E3
:10220000DF92EF92FF92CF93DF93EC016A017B01A3
:10221000B22EE889F98982E08083411581EE580762
:1022200061057105A1F060E079E08DE390E0A70120
:1022300096010E94B5152150310941095109569561
:10224000479537952795211580E1380798F0E8895B
:10225000F989108260E874E88EE190E0A7019601A8
:102260000E94B515215031094109510956954795EC
:1022700037952795EC85FD853083EE85FF85208396
:10228000188EEC89FD89B082EA89FB8980818061A2
:102290008083EA89FB89808188608083EA89FB8961
:1022A000808180688083EA89FB8980818F7D80833B
:1022B000DF91CF91FF90EF90DF90CF90BF90089586
:1022C0001F920F920FB60F9211240BB60F922F93FD
:1022D0008F939F93EF93FF93E0915104F0915204F9
:1022E0008081E0915704F091580482FD12C09081E2
:1022F00080915A048F5F8F7320915B04821751F095
:10230000E0915A04F0E0EF5BFB4F958F80935A0405
:1023100001C08081FF91EF919F918F912F910F903C
:102320000BBE0F900FBE0F901F9018951F920F922B
:102330000FB60F9211240BB60F922F933F934F932A
:102340005F936F937F938F939F93AF93BF93EF931D
:10235000FF9381E494E00E945610FF91EF91BF91AA
:10236000AF919F918F917F916F915F914F913F912D
:102370002F910F900BBE0F900FBE0F901F901895CE
:1023800081E494E00E94EC0F21E0892B09F420E025
:10239000822F0895109244041092430488EE93E033
:1023A000A0E0B0E08093450490934604A0934704D6
:1023B000B093480481E293E09093420480934104F7
:1023C00085EC90E090934E0480934D0484EC90E073
:1023D0009093500480934F0480EC90E090935204CB
:1023E0008093510481EC90E09093540480935304C3
:1023F00082EC90E0909356048093550486EC90E034
:10240000909358048093570410925A0410925B04DE
:1024100010925C0410925D04089508950E94790E54
:102420000E940D120E94DE01C9E1D0E10E94A606C1
:102430002097E1F30E941910F9CFCF92DF92EF922B
:10244000FF920F931F93CF93DF937C016A01EB01FF
:1024500000E010E00C151D0571F06991D701ED91B8
:10246000FC910190F081E02DC7011995892B19F09D
:102470000F5F1F4FEFCFC801DF91CF911F910F91D9
:10248000FF90EF90DF90CF9008956115710581F076
:10249000DB010D900020E9F7AD0141505109461BC9
:1024A000570BDC01ED91FC910280F381E02D199432
:1024B00080E090E008950C944512DC01ED91FC91D0
:1024C0000190F081E02D19946DE273E00C944512B7
:1024D0000F931F93CF93DF93EC010E9445128C0161
:1024E000CE010E946412800F911FDF91CF911F9146
:1024F0000F9108958F929F92AF92BF92CF92DF92E9
:10250000EF92FF920F931F93CF93DF93CDB7DEB778
:10251000A1970FB6F894DEBF0FBECDBF7C01C42ECD
:10252000E52FCB01D22E19A221E02D1510F02AE0C3
:10253000D22E8E010F5D1F4F8D2C912CA12CB12C12
:102540006C2D7E2FA50194010E94B5158C2DD29E75
:1025500080191124015011098A3014F4805D01C0E2
:10256000895CF8018083211531054105510521F071
:10257000C22EE32FCA01E4CFB801C7010E94451261
:10258000A1960FB6F894DEBF0FBECDBFDF91CF91FD
:102590001F910F91FF90EF90DF90CF90BF90AF9081
:1025A0009F908F900895CF92DF92EF92FF920F93BA
:1025B0001F93CF93DF93EC016A017B012115310555
:1025C00079F4E881F9810190F081E02D642FDF91A9
:1025D000CF911F910F91FF90EF90DF90CF901994C2
:1025E0002A303105E9F477FF1AC06DE20E945D12CE
:1025F0008C0144275527BA014C195D096E097F09E2
:102600002AE0CE010E947A12800F911FDF91CF91B4
:102610001F910F91FF90EF90DF90CF9008952AE0E7
:10262000B701A601CE01DF91CF911F910F91FF90CD
:10263000EF90DF90CF900C947A120F931F93CF936B
:10264000DF93EC019A01AB01662757FD6095762F69
:102650000E94D3128C01CE010E946412800F911F40
:10266000DF91CF911F910F9108952115310541F40C
:10267000DC01ED91FC910190F081E02D642F199423
:102680000C947A1208955058BB27AA270ED075C112
:1026900066D130F06BD120F031F49F3F11F41EF47D
:1026A0005BC10EF4E095E7FB51C1E92F77D180F3D0
:1026B000BA17620773078407950718F071F49EF53F
:1026C0008FC10EF4E0950B2EBA2FA02D0B01B9018E
:1026D00090010C01CA01A0011124FF27591B99F098
:1026E000593F50F4503E68F11A16F040A22F232FA4
:1026F000342F4427585FF3CF469537952795A795F4
:10270000F0405395C9F77EF41F16BA0B620B730B9A
:10271000840BBAF09150A1F0FF0FBB1F661F771F0B
:10272000881FC2F70EC0BA0F621F731F841F48F4C0
:10273000879577956795B795F7959E3F08F0B3CF46
:102740009395880F08F09927EE0F97958795089530
:10275000D9D008F481E008950CD00FC107D140F022
:10276000FED030F021F45F3F19F0F0C0511139C1B3
:10277000F3C014D198F39923C9F35523B1F3951BF2
:10278000550BBB27AA2762177307840738F09F5F92
:102790005F4F220F331F441FAA1FA9F333D00E2E01
:1027A0003AF0E0E830D091505040E695001CCAF76E
:1027B00029D0FE2F27D0660F771F881FBB1F261733
:1027C00037074807AB07B0E809F0BB0B802DBF0106
:1027D000FF2793585F4F2AF09E3F510568F0B6C01F
:1027E00000C15F3FECF3983EDCF3869577956795E3
:1027F000B795F7959F5FC9F7880F911D96958795B7
:1028000097F90895E1E0660F771F881FBB1F6217D5
:1028100073078407BA0720F0621B730B840BBA0B93
:10282000EE1F88F7E095089504D06894B111D9C0DF
:102830000895BCD088F09F5790F0B92F9927B751D1
:10284000A0F0D1F0660F771F881F991F1AF0BA9574
:10285000C9F712C0B13081F0C3D0B1E00895C0C053
:10286000672F782F8827B85F39F0B93FCCF386956A
:1028700077956795B395D9F73EF4909580957095C7
:1028800061957F4F8F4F9F4F0895E89409C097FB44
:102890003EF490958095709561957F4F8F4F9F4F37
:1028A0009923A9F0F92F96E9BB279395F69587957B
:1028B00077956795B795F111F8CFFAF4BB0F11F43E
:1028C00060FF1BC06F5F7F4F8F4F9F4F16C08823E5
:1028D00011F096E911C0772321F09EE8872F762F1B
:1028E00005C0662371F096E8862F70E060E02AF05C
:1028F0009A95660F771F881FDAF7880F9695879548
:1029000097F90895990F0008550FAA0BE0E8FEEF1C
:1029100016161706E807F907C0F012161306E407A3
:10292000F50798F0621B730B840B950B39F40A269C
:1029300061F0232B242B252B21F408950A2609F47A
:10294000A140A6958FEF811D811D089597F99F677E
:1029500080E870E060E008959FEF80EC0895002427
:102960000A941616170618060906089500240A94F4
:1029700012161306140605060895092E0394000C7A
:1029800011F4882352F0BB0F40F4BF2B11F460FF09
:1029900004C06F5F7F4F8F4F9F4F089557FD905832
:1029A000440F551F59F05F3F71F04795880F97FB13
:1029B000991F61F09F3F79F08795089512161306CD
:1029C0001406551FF2CF4695F1DF08C016161706FC
:1029D0001806991FF1CF8695710561050894089531
:1029E000E894BB2766277727CB0197F908958ADFFC
:1029F00008F48FEF08950BD0C0CFB1DF28F0B6DF19
:102A000018F0952309F0A2CFA7CF1124EACFC6DF93
:102A1000A0F3959FD1F3950F50E0551F629FF001F1
:102A2000729FBB27F00DB11D639FAA27F00DB11D4A
:102A3000AA1F649F6627B00DA11D661F829F2227D3
:102A4000B00DA11D621F739FB00DA11D621F839F5A
:102A5000A00D611D221F749F3327A00D611D231F30
:102A6000849F600D211D822F762F6A2F11249F577E
:102A700050408AF0E1F088234AF0EE0FFF1FBB1FA1
:102A8000661F771F881F91505040A9F79E3F510540
:102A900070F05CCFA6CF5F3FECF3983EDCF38695F9
:102AA00077956795B795F795E7959F5FC1F7FE2BEB
:102AB000880F911D9695879597F9089511F40EF456
:102AC0004BCF3EC073DFD0F39923D9F3CEF39F579A
:102AD000550B87FF43D00024A0E640EA90018058C0
:102AE0005695979528F4805C660F771F881F20F015
:102AF00026173707480730F4621B730B840B202915
:102B000031294A2BA69517940794202531254A2769
:102B100058F7660F771F881F20F0261737074807DA
:102B200030F4620B730B840B200D311D411DA095F9
:102B300081F7B901842F9158880F9695879508954C
:102B40009F3F31F0915020F4879577956795B79521
:102B5000880F911D9695879597F90895915050404B
:102B6000660F771F881FD2F70895A1E21A2EAA1BBD
:102B7000BB1BFD010DC0AA1FBB1FEE1FFF1FA2172D
:102B8000B307E407F50720F0A21BB30BE40BF50B2A
:102B9000661F771F881F991F1A9469F760957095B3
:102BA000809590959B01AC01BD01CF010895052E44
:102BB00097FB1EF400940E94EE1557FD07D00E946B
:102BC000B51507FC03D04EF40C94EE1550954095C6
:102BD000309521953F4F4F4F5F4F089590958095C9
:102BE000709561957F4F8F4F9F4F0895EE0FFF1F98
:102BF0000590F491E02D19940E940B16A59F900D5D
:102C0000B49F900DA49F800D911D112408950790ED
:102C1000F691E02D1994A29FB001B39FC001A39F2C
:102C2000700D811D1124911DB29F700D811D112405
:082C3000911D0895F894FFCFF7
:102C3800E803E803E803E803080009000A000800BD
:102C480001203A200053544F5050494E47005255E6
:102C58004E4E494E4720580052554E4E494E472039
:102C6800590052554E4E494E47205A00494E56413A
:102C78004C49442041584953004361736520312031
:102C88002D20666F72776172640046494E49534839
:102C9800454400436173652031202D2072657665B7
:102CA80072736500456E61626C65640044697361A6
:102CB800626C65640052454144494E4700444F4E9A
:102CC8004500414E414C4F47205350454544205AFA
:102CD80000414E414C4F4720535045454420590030
:102CE80043484F4F5345204D4F544F5200313A20DF
:102CF8005800323A205900333A205A004D4F56496D
:102D08004E472058004D4F56494E472059004D4FC9
:102D180056494E47205A0052656164696E672042E1
:102D28007574746F6E0046554C4C20434F4E545288
:102D38004F4C00000000006F09880965089607E3FA
:102D480008A908F9081A094E09DA0730080000002E
:102D58000099101D12EC0F0510F70F77100D0A00DF
:0E2D68006E616E00696E66006F7666002E006A
:00000001FF
